{
    "_format": "hh-sol-artifact-1",
    "contractName": "Vault",
    "sourceName": "contracts/Vault.sol",
    "abi": [
        {
            "anonymous": false,
            "inputs": [
                {
                    "indexed": true,
                    "internalType": "address",
                    "name": "user",
                    "type": "address"
                },
                {
                    "indexed": false,
                    "internalType": "uint256",
                    "name": "amount",
                    "type": "uint256"
                }
            ],
            "name": "Deposit",
            "type": "event"
        },
        {
            "anonymous": false,
            "inputs": [
                {
                    "indexed": true,
                    "internalType": "address",
                    "name": "user",
                    "type": "address"
                },
                {
                    "indexed": false,
                    "internalType": "uint256",
                    "name": "amount",
                    "type": "uint256"
                }
            ],
            "name": "Withdrawal",
            "type": "event"
        },
        {
            "inputs": [],
            "name": "deposit",
            "outputs": [],
            "stateMutability": "payable",
            "type": "function"
        },
        {
            "inputs": [],
            "name": "getBalance",
            "outputs": [
                {
                    "internalType": "uint256",
                    "name": "",
                    "type": "uint256"
                }
            ],
            "stateMutability": "view",
            "type": "function"
        },
        {
            "inputs": [
                {
                    "internalType": "uint256",
                    "name": "amount",
                    "type": "uint256"
                }
            ],
            "name": "withdraw",
            "outputs": [],
            "stateMutability": "nonpayable",
            "type": "function"
        }
    ],
    "bytecode": "0x608060405234801561001057600080fd5b50610328806100206000396000f3fe6080604052600436106100345760003560e01c806312065fe0146100395780632e1a7d4d14610068578063d0e30db01461008a575b600080fd5b34801561004557600080fd5b503360009081526020819052604090205460405190815260200160405180910390f35b34801561007457600080fd5b50610088610083366004610297565b610092565b005b6100886101db565b600081116100fb5760405162461bcd60e51b815260206004820152602b60248201527f5769746864726177616c20616d6f756e74206d7573742062652067726561746560448201526a72207468616e207a65726f60a81b60648201526084015b60405180910390fd5b336000908152602081905260409020548111156101515760405162461bcd60e51b8152602060048201526014602482015273496e73756666696369656e742062616c616e636560601b60448201526064016100f2565b33600090815260208190526040812080548392906101709084906102c6565b9091555050604051339082156108fc029083906000818181858888f193505050501580156101a2573d6000803e3d6000fd5b5060405181815233907f7fcf532c15f0a6db0bd6d0e038bea71d30d808c7d98cb3bf7268a95bf5081b659060200160405180910390a250565b6000341161023c5760405162461bcd60e51b815260206004820152602860248201527f4465706f73697420616d6f756e74206d7573742062652067726561746572207460448201526768616e207a65726f60c01b60648201526084016100f2565b336000908152602081905260408120805434929061025b9084906102df565b909155505060405134815233907fe1fffcc4923d04b559f4d29a8bfc6cda04eb5b0d3c460751c2402c5c5cc9109c9060200160405180910390a2565b6000602082840312156102a957600080fd5b5035919050565b634e487b7160e01b600052601160045260246000fd5b818103818111156102d9576102d96102b0565b92915050565b808201808211156102d9576102d96102b056fea2646970667358221220acc776fd76168e4716a3b30e6686d90e8d26a82fa7ee699c6b565561b7c019a964736f6c63430008180033",
    "linkReferences": {},
    "deployedLinkReferences": {}
}